{
  "contractName": "MetaDappTokenSale",
  "abi": [
    {
      "inputs": [
        {
          "internalType": "address",
          "name": "_token",
          "type": "address"
        }
      ],
      "stateMutability": "nonpayable",
      "type": "constructor"
    },
    {
      "anonymous": false,
      "inputs": [
        {
          "indexed": false,
          "internalType": "address",
          "name": "_buyer",
          "type": "address"
        },
        {
          "indexed": false,
          "internalType": "uint256",
          "name": "_amount",
          "type": "uint256"
        }
      ],
      "name": "Sell",
      "type": "event"
    },
    {
      "inputs": [],
      "name": "owner",
      "outputs": [
        {
          "internalType": "address",
          "name": "",
          "type": "address"
        }
      ],
      "stateMutability": "view",
      "type": "function",
      "constant": true
    },
    {
      "inputs": [
        {
          "internalType": "uint256",
          "name": "tokens",
          "type": "uint256"
        }
      ],
      "name": "buy",
      "outputs": [],
      "stateMutability": "payable",
      "type": "function",
      "payable": true
    },
    {
      "inputs": [],
      "name": "__tokens",
      "outputs": [
        {
          "internalType": "uint256",
          "name": "",
          "type": "uint256"
        }
      ],
      "stateMutability": "view",
      "type": "function",
      "constant": true
    },
    {
      "inputs": [],
      "name": "__tokensPrice",
      "outputs": [
        {
          "internalType": "uint256",
          "name": "",
          "type": "uint256"
        }
      ],
      "stateMutability": "view",
      "type": "function",
      "constant": true
    },
    {
      "inputs": [],
      "name": "endSale",
      "outputs": [],
      "stateMutability": "nonpayable",
      "type": "function"
    },
    {
      "inputs": [],
      "name": "tokenSold",
      "outputs": [
        {
          "internalType": "uint256",
          "name": "",
          "type": "uint256"
        }
      ],
      "stateMutability": "view",
      "type": "function",
      "constant": true
    },
    {
      "inputs": [],
      "name": "totalTokens",
      "outputs": [
        {
          "internalType": "uint256",
          "name": "",
          "type": "uint256"
        }
      ],
      "stateMutability": "view",
      "type": "function",
      "constant": true
    },
    {
      "inputs": [],
      "name": "__phases",
      "outputs": [
        {
          "components": [
            {
              "internalType": "uint256",
              "name": "total",
              "type": "uint256"
            },
            {
              "internalType": "uint256",
              "name": "price",
              "type": "uint256"
            },
            {
              "internalType": "uint256",
              "name": "phase",
              "type": "uint256"
            }
          ],
          "internalType": "struct MetaDappTokenSale.Phase[]",
          "name": "",
          "type": "tuple[]"
        }
      ],
      "stateMutability": "view",
      "type": "function",
      "constant": true
    },
    {
      "inputs": [],
      "name": "currentPhase",
      "outputs": [
        {
          "components": [
            {
              "internalType": "uint256",
              "name": "total",
              "type": "uint256"
            },
            {
              "internalType": "uint256",
              "name": "price",
              "type": "uint256"
            },
            {
              "internalType": "uint256",
              "name": "phase",
              "type": "uint256"
            }
          ],
          "internalType": "struct MetaDappTokenSale.Phase",
          "name": "",
          "type": "tuple"
        }
      ],
      "stateMutability": "view",
      "type": "function",
      "constant": true
    },
    {
      "inputs": [],
      "name": "__isOwner",
      "outputs": [
        {
          "internalType": "bool",
          "name": "",
          "type": "bool"
        }
      ],
      "stateMutability": "view",
      "type": "function",
      "constant": true
    },
    {
      "inputs": [
        {
          "internalType": "uint256",
          "name": "phase_id",
          "type": "uint256"
        }
      ],
      "name": "phase",
      "outputs": [
        {
          "components": [
            {
              "internalType": "uint256",
              "name": "total",
              "type": "uint256"
            },
            {
              "internalType": "uint256",
              "name": "price",
              "type": "uint256"
            },
            {
              "internalType": "uint256",
              "name": "phase",
              "type": "uint256"
            }
          ],
          "internalType": "struct MetaDappTokenSale.Phase",
          "name": "",
          "type": "tuple"
        }
      ],
      "stateMutability": "view",
      "type": "function",
      "constant": true
    }
  ],
  "bytecode": "0x60806040526000600460006101000a81548173ffffffffffffffffffffffffffffffffffffffff021916908373ffffffffffffffffffffffffffffffffffffffff1602179055503480156200005357600080fd5b50604051620017863803806200178683398181016040528101906200007991906200020c565b336000806101000a81548173ffffffffffffffffffffffffffffffffffffffff021916908373ffffffffffffffffffffffffffffffffffffffff16021790555080600560006101000a81548173ffffffffffffffffffffffffffffffffffffffff021916908373ffffffffffffffffffffffffffffffffffffffff16021790555065048c27395000600181905550600060068190555060006002819055506200012b6203d090620001d660201b60201c565b6003819055506000600190505b600a8111620001ce57600760405180606001604052806161a881526020018360015462000166919062000238565b815260200183815250908060018154018082558091505060019003906000526020600020906003020160009091909190915060008201518160000155602082015181600101556040820151816002015550508080620001c590620002d7565b91505062000138565b50506200036e565b6000670de0b6b3a764000082620001ee919062000238565b9050919050565b600081519050620002068162000354565b92915050565b6000602082840312156200021f57600080fd5b60006200022f84828501620001f5565b91505092915050565b60006200024582620002cd565b91506200025283620002cd565b9250817fffffffffffffffffffffffffffffffffffffffffffffffffffffffffffffffff04831182151516156200028e576200028d62000325565b5b828202905092915050565b6000620002a682620002ad565b9050919050565b600073ffffffffffffffffffffffffffffffffffffffff82169050919050565b6000819050919050565b6000620002e482620002cd565b91507fffffffffffffffffffffffffffffffffffffffffffffffffffffffffffffffff8214156200031a576200031962000325565b5b600182019050919050565b7f4e487b7100000000000000000000000000000000000000000000000000000000600052601160045260246000fd5b6200035f8162000299565b81146200036b57600080fd5b50565b611408806200037e6000396000f3fe60806040526004361061009c5760003560e01c80637d2319c0116100645780637d2319c0146101765780637e1c0c09146101a15780638da5cb5b146101cc578063d51cfd2f146101f7578063d96a094a14610222578063e05091511461023e5761009c565b8063055ad42e146100a1578063135f8aa7146100cc578063380d831b14610109578063519ee19e1461012057806361fd6b721461014b575b600080fd5b3480156100ad57600080fd5b506100b6610269565b6040516100c39190610fa2565b60405180910390f35b3480156100d857600080fd5b506100f360048036038101906100ee9190610c53565b6102e9565b6040516101009190610fa2565b60405180910390f35b34801561011557600080fd5b5061011e610369565b005b34801561012c57600080fd5b506101356105ac565b6040516101429190610fbd565b60405180910390f35b34801561015757600080fd5b506101606105b6565b60405161016d9190610f05565b60405180910390f35b34801561018257600080fd5b5061018b610633565b6040516101989190610fbd565b60405180910390f35b3480156101ad57600080fd5b506101b661063d565b6040516101c39190610fbd565b60405180910390f35b3480156101d857600080fd5b506101e16106ee565b6040516101ee9190610ec1565b60405180910390f35b34801561020357600080fd5b5061020c610712565b6040516102199190610f27565b60405180910390f35b61023c60048036038101906102379190610c53565b610769565b005b34801561024a57600080fd5b50610253610acf565b6040516102609190610fbd565b60405180910390f35b610271610bca565b6007600654815481106102ad577f4e487b7100000000000000000000000000000000000000000000000000000000600052603260045260246000fd5b90600052602060002090600302016040518060600160405290816000820154815260200160018201548152602001600282015481525050905090565b6102f1610bca565b6007828154811061032b577f4e487b7100000000000000000000000000000000000000000000000000000000600052603260045260246000fd5b906000526020600020906003020160405180606001604052908160008201548152602001600182015481526020016002820154815250509050919050565b60008054906101000a900473ffffffffffffffffffffffffffffffffffffffff1673ffffffffffffffffffffffffffffffffffffffff163373ffffffffffffffffffffffffffffffffffffffff16146103c157600080fd5b600560009054906101000a900473ffffffffffffffffffffffffffffffffffffffff1673ffffffffffffffffffffffffffffffffffffffff1663a9059cbb60008054906101000a900473ffffffffffffffffffffffffffffffffffffffff16600560009054906101000a900473ffffffffffffffffffffffffffffffffffffffff1673ffffffffffffffffffffffffffffffffffffffff166370a08231306040518263ffffffff1660e01b815260040161047b9190610ec1565b60206040518083038186803b15801561049357600080fd5b505afa1580156104a7573d6000803e3d6000fd5b505050506040513d601f19601f820116820180604052508101906104cb9190610c7c565b6040518363ffffffff1660e01b81526004016104e8929190610edc565b602060405180830381600087803b15801561050257600080fd5b505af1158015610516573d6000803e3d6000fd5b505050506040513d601f19601f8201168201806040525081019061053a9190610c2a565b61054357600080fd5b60008054906101000a900473ffffffffffffffffffffffffffffffffffffffff1673ffffffffffffffffffffffffffffffffffffffff166108fc479081150290604051600060405180830381858888f193505050501580156105a9573d6000803e3d6000fd5b50565b6000600254905090565b60606007805480602002602001604051908101604052809291908181526020016000905b8282101561062a57838290600052602060002090600302016040518060600160405290816000820154815260200160018201548152602001600282015481525050815260200190600101906105da565b50505050905090565b6000600154905090565b60006106e9600560009054906101000a900473ffffffffffffffffffffffffffffffffffffffff1673ffffffffffffffffffffffffffffffffffffffff166318160ddd6040518163ffffffff1660e01b815260040160206040518083038186803b1580156106aa57600080fd5b505afa1580156106be573d6000803e3d6000fd5b505050506040513d601f19601f820116820180604052508101906106e29190610c7c565b6012610b8b565b905090565b60008054906101000a900473ffffffffffffffffffffffffffffffffffffffff1681565b60008060009054906101000a900473ffffffffffffffffffffffffffffffffffffffff1673ffffffffffffffffffffffffffffffffffffffff163373ffffffffffffffffffffffffffffffffffffffff1614905090565b806107756006546102e9565b60200151346107849190611078565b146107c4576040517f08c379a00000000000000000000000000000000000000000000000000000000081526004016107bb90610f62565b60405180910390fd5b6107cd81610bad565b6107d86006546102e9565b60000151111561081d576040517f08c379a000000000000000000000000000000000000000000000000000000000815260040161081490610f42565b60405180910390fd5b61082681610bad565b600560009054906101000a900473ffffffffffffffffffffffffffffffffffffffff1673ffffffffffffffffffffffffffffffffffffffff166370a08231306040518263ffffffff1660e01b81526004016108819190610ec1565b60206040518083038186803b15801561089957600080fd5b505afa1580156108ad573d6000803e3d6000fd5b505050506040513d601f19601f820116820180604052508101906108d19190610c7c565b1015610912576040517f08c379a000000000000000000000000000000000000000000000000000000000815260040161090990610f82565b60405180910390fd5b600560009054906101000a900473ffffffffffffffffffffffffffffffffffffffff1673ffffffffffffffffffffffffffffffffffffffff1663a9059cbb3361095a84610bad565b6040518363ffffffff1660e01b8152600401610977929190610edc565b602060405180830381600087803b15801561099157600080fd5b505af11580156109a5573d6000803e3d6000fd5b505050506040513d601f19601f820116820180604052508101906109c99190610c2a565b6109d257600080fd5b80600260008282546109e49190611022565b9250508190555080600760065481548110610a28577f4e487b7100000000000000000000000000000000000000000000000000000000600052603260045260246000fd5b90600052602060002090600302016000016000828254610a489190611274565b925050819055506000610a5c6006546102e9565b6000015111610a7e5760066000815480929190610a78906112f0565b91905055505b610a896006546102e9565b602001516001819055507f5e5e995ce3133561afceaa51a9a154d5db228cd7525d34df5185582c18d3df093382604051610ac4929190610edc565b60405180910390a150565b6000610b86600560009054906101000a900473ffffffffffffffffffffffffffffffffffffffff1673ffffffffffffffffffffffffffffffffffffffff166370a08231336040518263ffffffff1660e01b8152600401610b2f9190610ec1565b60206040518083038186803b158015610b4757600080fd5b505afa158015610b5b573d6000803e3d6000fd5b505050506040513d601f19601f82011682018060405250810190610b7f9190610c7c565b6012610b8b565b905090565b600081600a610b9a91906110fc565b83610ba59190611078565b905092915050565b6000670de0b6b3a764000082610bc3919061121a565b9050919050565b60405180606001604052806000815260200160008152602001600081525090565b600081519050610bfa816113a4565b92915050565b600081359050610c0f816113bb565b92915050565b600081519050610c24816113bb565b92915050565b600060208284031215610c3c57600080fd5b6000610c4a84828501610beb565b91505092915050565b600060208284031215610c6557600080fd5b6000610c7384828501610c00565b91505092915050565b600060208284031215610c8e57600080fd5b6000610c9c84828501610c15565b91505092915050565b6000610cb18383610e1f565b60608301905092915050565b610cc6816112a8565b82525050565b6000610cd782610fe8565b610ce18185611000565b9350610cec83610fd8565b8060005b83811015610d1d578151610d048882610ca5565b9750610d0f83610ff3565b925050600181019050610cf0565b5085935050505092915050565b610d33816112ba565b82525050565b6000610d46601183611011565b91507f7a752077656e6967657220546f6b656e730000000000000000000000000000006000830152602082019050919050565b6000610d86602b83611011565b91507f4665686c6572207765696c20646965205765727465206e69636874207565626560008301527f7265696e7374696d6d656e0000000000000000000000000000000000000000006020830152604082019050919050565b6000610dec600f83611011565b91507f7a752077656e696720546f6b656e7300000000000000000000000000000000006000830152602082019050919050565b606082016000820151610e356000850182610ea3565b506020820151610e486020850182610ea3565b506040820151610e5b6040850182610ea3565b50505050565b606082016000820151610e776000850182610ea3565b506020820151610e8a6020850182610ea3565b506040820151610e9d6040850182610ea3565b50505050565b610eac816112e6565b82525050565b610ebb816112e6565b82525050565b6000602082019050610ed66000830184610cbd565b92915050565b6000604082019050610ef16000830185610cbd565b610efe6020830184610eb2565b9392505050565b60006020820190508181036000830152610f1f8184610ccc565b905092915050565b6000602082019050610f3c6000830184610d2a565b92915050565b60006020820190508181036000830152610f5b81610d39565b9050919050565b60006020820190508181036000830152610f7b81610d79565b9050919050565b60006020820190508181036000830152610f9b81610ddf565b9050919050565b6000606082019050610fb76000830184610e61565b92915050565b6000602082019050610fd26000830184610eb2565b92915050565b6000819050602082019050919050565b600081519050919050565b6000602082019050919050565b600082825260208201905092915050565b600082825260208201905092915050565b600061102d826112e6565b9150611038836112e6565b9250827fffffffffffffffffffffffffffffffffffffffffffffffffffffffffffffffff0382111561106d5761106c611339565b5b828201905092915050565b6000611083826112e6565b915061108e836112e6565b92508261109e5761109d611368565b5b828204905092915050565b6000808291508390505b60018511156110f3578086048111156110cf576110ce611339565b5b60018516156110de5780820291505b80810290506110ec85611397565b94506110b3565b94509492505050565b6000611107826112e6565b9150611112836112e6565b925061113f7fffffffffffffffffffffffffffffffffffffffffffffffffffffffffffffffff8484611147565b905092915050565b6000826111575760019050611213565b816111655760009050611213565b816001811461117b5760028114611185576111b4565b6001915050611213565b60ff84111561119757611196611339565b5b8360020a9150848211156111ae576111ad611339565b5b50611213565b5060208310610133831016604e8410600b84101617156111e95782820a9050838111156111e4576111e3611339565b5b611213565b6111f684848460016110a9565b9250905081840481111561120d5761120c611339565b5b81810290505b9392505050565b6000611225826112e6565b9150611230836112e6565b9250817fffffffffffffffffffffffffffffffffffffffffffffffffffffffffffffffff048311821515161561126957611268611339565b5b828202905092915050565b600061127f826112e6565b915061128a836112e6565b92508282101561129d5761129c611339565b5b828203905092915050565b60006112b3826112c6565b9050919050565b60008115159050919050565b600073ffffffffffffffffffffffffffffffffffffffff82169050919050565b6000819050919050565b60006112fb826112e6565b91507fffffffffffffffffffffffffffffffffffffffffffffffffffffffffffffffff82141561132e5761132d611339565b5b600182019050919050565b7f4e487b7100000000000000000000000000000000000000000000000000000000600052601160045260246000fd5b7f4e487b7100000000000000000000000000000000000000000000000000000000600052601260045260246000fd5b60008160011c9050919050565b6113ad816112ba565b81146113b857600080fd5b50565b6113c4816112e6565b81146113cf57600080fd5b5056fea2646970667358221220a4acb2db613f4f8eb43c66cb1cc01dd696c0cc5b56a4696df1c69416db4a3f8864736f6c63430008000033",
  "immutableReferences": {},
  "source": "// SPDX-License-Identifier: MIT\npragma solidity ^0.8.0;\n\nimport \"./Address.sol\";\nimport \"@openzeppelin/contracts/token/ERC20/IERC20.sol\";\n\ncontract MetaDappTokenSale {\n    address public owner;\n    uint256 private buyPrice;\n    uint256 private sold;\n    uint256 private toSold;\n    address private noOne = address(0);\n    IERC20 private token;\n    uint256 private currentPhaseIndex;\n\n    struct Phase {\n        uint256 total;\n        uint256 price;\n        uint256 phase;\n    }\n\n    Phase[] private phases;\n\n    event Sell(address _buyer, uint256 _amount);\n\n    constructor(address _token) {\n        owner = msg.sender;\n        token = IERC20(_token);\n        buyPrice = 0.000005 * 10**18;\n        currentPhaseIndex = 0;\n        sold = 0;\n        toSold = __amount(250000);\n\n        for (uint256 i = 1; i <= 10; i++) {\n            phases.push(Phase(25000, buyPrice * i, i));\n        }\n    }\n\n    function buy(uint256 tokens) public payable {\n        require(\n            msg.value / phase(currentPhaseIndex).price == tokens,\n            \"Fehler weil die Werte nicht uebereinstimmen\"\n        );\n        require(\n            phase(currentPhaseIndex).total <= __amount(tokens),\n            \"zu weniger Tokens\"\n        );\n        require(\n            token.balanceOf(address(this)) >= __amount(tokens),\n            \"zu wenig Tokens\"\n        );\n        require(token.transfer(msg.sender, __amount(tokens)));\n\n        sold += tokens;\n        phases[currentPhaseIndex].total -= tokens;\n        if (phase(currentPhaseIndex).total <= 0) currentPhaseIndex++;\n        buyPrice = phase(currentPhaseIndex).price;\n\n        emit Sell(msg.sender, tokens);\n    }\n\n    function __unAmount(uint256 _amount, uint256 decimals)\n        private\n        pure\n        returns (uint256)\n    {\n        return _amount / (10**decimals);\n    }\n\n    function __tokens() public view returns (uint256) {\n        return __unAmount(token.balanceOf(msg.sender), 18);\n    }\n\n    function __tokensPrice() public view returns (uint256) {\n        return buyPrice;\n    }\n\n    function endSale() public isOwner {\n        require(token.transfer(owner, token.balanceOf(address(this))));\n        payable(owner).transfer(address(this).balance);\n    }\n\n    function tokenSold() public view returns (uint256) {\n        return sold;\n    }\n\n    function totalTokens() public view returns (uint256) {\n        return __unAmount(token.totalSupply(), 18);\n    }\n\n    function __phases() public view returns (Phase[] memory) {\n        return phases;\n    }\n\n    function currentPhase() public view returns (Phase memory) {\n        return phases[currentPhaseIndex];\n    }\n\n    function __isOwner() public view returns (bool) {\n        return msg.sender == owner;\n    }\n\n    function phase(uint256 phase_id) public view returns (Phase memory) {\n        return phases[phase_id];\n    }\n\n    function __amount(uint256 _amount) private pure returns (uint256) {\n        return _amount * (10**18);\n    }\n\n    modifier isOwner() {\n        require(msg.sender == owner);\n        _;\n    }\n}\n",
  "sourcePath": "D:\\tienda_Nft_Marketplace\\contracts\\MetaDappTokenSale.sol",
  "compiler": {
    "name": "solc",
    "version": "0.8.0+commit.c7dfd78e.Emscripten.clang"
  },
  "schemaVersion": "3.4.11",
  "updatedAt": "2022-12-16T19:47:47.307Z",
  "networkType": "ethereum",
  "devdoc": {
    "kind": "dev",
    "methods": {},
    "version": 1
  },
  "userdoc": {
    "kind": "user",
    "methods": {},
    "version": 1
  }
}