{
  "contractName": "MetaDapp",
  "abi": [
    {
      "inputs": [
        {
          "internalType": "address",
          "name": "_token",
          "type": "address"
        }
      ],
      "stateMutability": "nonpayable",
      "type": "constructor"
    },
    {
      "anonymous": false,
      "inputs": [
        {
          "indexed": true,
          "internalType": "address",
          "name": "owner",
          "type": "address"
        },
        {
          "indexed": false,
          "internalType": "string",
          "name": "name",
          "type": "string"
        },
        {
          "indexed": false,
          "internalType": "uint256",
          "name": "price",
          "type": "uint256"
        }
      ],
      "name": "ProductAdded",
      "type": "event"
    },
    {
      "anonymous": false,
      "inputs": [
        {
          "indexed": true,
          "internalType": "address",
          "name": "user",
          "type": "address"
        },
        {
          "indexed": false,
          "internalType": "address",
          "name": "owner",
          "type": "address"
        },
        {
          "indexed": false,
          "internalType": "uint256",
          "name": "price",
          "type": "uint256"
        }
      ],
      "name": "ProductPurchased",
      "type": "event"
    },
    {
      "inputs": [],
      "name": "owner",
      "outputs": [
        {
          "internalType": "address",
          "name": "",
          "type": "address"
        }
      ],
      "stateMutability": "view",
      "type": "function",
      "constant": true
    },
    {
      "inputs": [
        {
          "internalType": "address",
          "name": "",
          "type": "address"
        }
      ],
      "name": "users",
      "outputs": [
        {
          "internalType": "string",
          "name": "name",
          "type": "string"
        },
        {
          "internalType": "string",
          "name": "contact",
          "type": "string"
        },
        {
          "internalType": "bool",
          "name": "updated",
          "type": "bool"
        },
        {
          "internalType": "uint256",
          "name": "total_products",
          "type": "uint256"
        }
      ],
      "stateMutability": "view",
      "type": "function",
      "constant": true
    },
    {
      "inputs": [
        {
          "internalType": "uint256",
          "name": "percent",
          "type": "uint256"
        }
      ],
      "name": "setSecureAddPercent",
      "outputs": [],
      "stateMutability": "nonpayable",
      "type": "function"
    },
    {
      "inputs": [
        {
          "internalType": "uint256",
          "name": "_amount",
          "type": "uint256"
        }
      ],
      "name": "__percentValue",
      "outputs": [
        {
          "internalType": "uint256",
          "name": "",
          "type": "uint256"
        }
      ],
      "stateMutability": "view",
      "type": "function",
      "constant": true
    },
    {
      "inputs": [
        {
          "internalType": "string",
          "name": "name",
          "type": "string"
        },
        {
          "internalType": "string",
          "name": "desc",
          "type": "string"
        },
        {
          "internalType": "string",
          "name": "section",
          "type": "string"
        },
        {
          "internalType": "uint256",
          "name": "price",
          "type": "uint256"
        }
      ],
      "name": "addProduct",
      "outputs": [],
      "stateMutability": "nonpayable",
      "type": "function"
    },
    {
      "inputs": [
        {
          "internalType": "uint256",
          "name": "product_id",
          "type": "uint256"
        },
        {
          "internalType": "uint256",
          "name": "price",
          "type": "uint256"
        }
      ],
      "name": "updateProductPrice",
      "outputs": [],
      "stateMutability": "nonpayable",
      "type": "function"
    },
    {
      "inputs": [
        {
          "internalType": "string",
          "name": "contact",
          "type": "string"
        },
        {
          "internalType": "string",
          "name": "name",
          "type": "string"
        }
      ],
      "name": "updateUserContact",
      "outputs": [],
      "stateMutability": "nonpayable",
      "type": "function"
    },
    {
      "inputs": [
        {
          "internalType": "uint256",
          "name": "product_id",
          "type": "uint256"
        }
      ],
      "name": "buyProduct",
      "outputs": [],
      "stateMutability": "nonpayable",
      "type": "function"
    },
    {
      "inputs": [],
      "name": "totalUsers",
      "outputs": [
        {
          "internalType": "uint256",
          "name": "",
          "type": "uint256"
        }
      ],
      "stateMutability": "view",
      "type": "function",
      "constant": true
    },
    {
      "inputs": [],
      "name": "getProducts",
      "outputs": [
        {
          "components": [
            {
              "internalType": "string",
              "name": "name",
              "type": "string"
            },
            {
              "internalType": "string",
              "name": "desc",
              "type": "string"
            },
            {
              "internalType": "string",
              "name": "section",
              "type": "string"
            },
            {
              "internalType": "uint256",
              "name": "price",
              "type": "uint256"
            },
            {
              "internalType": "address",
              "name": "owner",
              "type": "address"
            },
            {
              "internalType": "address",
              "name": "reserved_by",
              "type": "address"
            }
          ],
          "internalType": "struct MetaDapp.Product[]",
          "name": "",
          "type": "tuple[]"
        }
      ],
      "stateMutability": "view",
      "type": "function",
      "constant": true
    },
    {
      "inputs": [
        {
          "internalType": "uint256",
          "name": "product_id",
          "type": "uint256"
        }
      ],
      "name": "getProduct",
      "outputs": [
        {
          "components": [
            {
              "internalType": "string",
              "name": "name",
              "type": "string"
            },
            {
              "internalType": "string",
              "name": "desc",
              "type": "string"
            },
            {
              "internalType": "string",
              "name": "section",
              "type": "string"
            },
            {
              "internalType": "uint256",
              "name": "price",
              "type": "uint256"
            },
            {
              "internalType": "address",
              "name": "owner",
              "type": "address"
            },
            {
              "internalType": "address",
              "name": "reserved_by",
              "type": "address"
            }
          ],
          "internalType": "struct MetaDapp.Product",
          "name": "",
          "type": "tuple"
        }
      ],
      "stateMutability": "view",
      "type": "function",
      "constant": true
    },
    {
      "inputs": [
        {
          "internalType": "address",
          "name": "userAddress",
          "type": "address"
        }
      ],
      "name": "getUser",
      "outputs": [
        {
          "components": [
            {
              "internalType": "string",
              "name": "name",
              "type": "string"
            },
            {
              "internalType": "string",
              "name": "contact",
              "type": "string"
            },
            {
              "internalType": "bool",
              "name": "updated",
              "type": "bool"
            },
            {
              "internalType": "uint256",
              "name": "total_products",
              "type": "uint256"
            },
            {
              "internalType": "uint256[]",
              "name": "products",
              "type": "uint256[]"
            }
          ],
          "internalType": "struct MetaDapp.User",
          "name": "",
          "type": "tuple"
        }
      ],
      "stateMutability": "view",
      "type": "function",
      "constant": true
    },
    {
      "inputs": [
        {
          "internalType": "address payable",
          "name": "account",
          "type": "address"
        }
      ],
      "name": "withdrawBNB",
      "outputs": [],
      "stateMutability": "nonpayable",
      "type": "function"
    },
    {
      "inputs": [
        {
          "internalType": "address",
          "name": "to",
          "type": "address"
        },
        {
          "internalType": "uint256",
          "name": "amount",
          "type": "uint256"
        }
      ],
      "name": "withdraw",
      "outputs": [],
      "stateMutability": "nonpayable",
      "type": "function"
    }
  ],
  "bytecode": "0x608060405260056001556000600260006101000a81548173ffffffffffffffffffffffffffffffffffffffff021916908373ffffffffffffffffffffffffffffffffffffffff1602179055503480156200005857600080fd5b5060405162002a2338038062002a2383398181016040528101906200007e919062000125565b336000806101000a81548173ffffffffffffffffffffffffffffffffffffffff021916908373ffffffffffffffffffffffffffffffffffffffff16021790555080600360006101000a81548173ffffffffffffffffffffffffffffffffffffffff021916908373ffffffffffffffffffffffffffffffffffffffff1602179055506000600681905550506200019f565b6000815190506200011f8162000185565b92915050565b6000602082840312156200013857600080fd5b600062000148848285016200010e565b91505092915050565b60006200015e8262000165565b9050919050565b600073ffffffffffffffffffffffffffffffffffffffff82169050919050565b620001908162000151565b81146200019c57600080fd5b50565b61287480620001af6000396000f3fe608060405234801561001057600080fd5b50600436106100ea5760003560e01c80639c3bddb21161008c578063bff1f9e111610066578063bff1f9e11461025c578063c29b2f201461027a578063d43ca17714610298578063f3fef3a3146102b4576100ea565b80639c3bddb2146101dd578063a87430ba146101f9578063b9db15b41461022c576100ea565b806372609471116100c8578063726094711461016b5780638165fed5146101875780638642269e146101a35780638da5cb5b146101bf576100ea565b80635d6b601d146100ef578063621ec9cd1461011f5780636f77926b1461013b575b600080fd5b61010960048036038101906101049190611c3e565b6102d0565b60405161011691906123f7565b60405180910390f35b61013960048036038101906101349190611b27565b6102f3565b005b61015560048036038101906101509190611a70565b610414565b60405161016291906123d5565b60405180910390f35b61018560048036038101906101809190611a99565b61060e565b005b6101a1600480360381019061019c9190611b93565b6106e0565b005b6101bd60048036038101906101b89190611c3e565b6108f8565b005b6101c7610b54565b6040516101d491906121ea565b60405180910390f35b6101f760048036038101906101f29190611c90565b610b78565b005b610213600480360381019061020e9190611a70565b610d0f565b60405161022394939291906122b0565b60405180910390f35b61024660048036038101906102419190611c3e565b610e5c565b60405161025391906123b3565b60405180910390f35b61026461112a565b60405161027191906123f7565b60405180910390f35b610282611134565b60405161028f919061228e565b60405180910390f35b6102b260048036038101906102ad9190611c3e565b6113ff565b005b6102ce60048036038101906102c99190611ac2565b611461565b005b60006064826001546102e291906125a4565b6102ec9190612573565b9050919050565b600260009054906101000a900473ffffffffffffffffffffffffffffffffffffffff1673ffffffffffffffffffffffffffffffffffffffff163373ffffffffffffffffffffffffffffffffffffffff16141561034e57600080fd5b6000600560003373ffffffffffffffffffffffffffffffffffffffff1673ffffffffffffffffffffffffffffffffffffffff1681526020019081526020016000209050828160010190805190602001906103a9929190611869565b50818160000190805190602001906103c2929190611869565b508060020160009054906101000a900460ff166103f257600660008154809291906103ec906126cc565b91905055505b60018160020160006101000a81548160ff021916908315150217905550505050565b61041c6118ef565b600560008373ffffffffffffffffffffffffffffffffffffffff1673ffffffffffffffffffffffffffffffffffffffff1681526020019081526020016000206040518060a00160405290816000820180546104769061269a565b80601f01602080910402602001604051908101604052809291908181526020018280546104a29061269a565b80156104ef5780601f106104c4576101008083540402835291602001916104ef565b820191906000526020600020905b8154815290600101906020018083116104d257829003601f168201915b505050505081526020016001820180546105089061269a565b80601f01602080910402602001604051908101604052809291908181526020018280546105349061269a565b80156105815780601f1061055657610100808354040283529160200191610581565b820191906000526020600020905b81548152906001019060200180831161056457829003601f168201915b505050505081526020016002820160009054906101000a900460ff1615151515815260200160038201548152602001600482018054806020026020016040519081016040528092919081815260200182805480156105fe57602002820191906000526020600020905b8154815260200190600101908083116105ea575b5050505050815250509050919050565b60008054906101000a900473ffffffffffffffffffffffffffffffffffffffff1673ffffffffffffffffffffffffffffffffffffffff163373ffffffffffffffffffffffffffffffffffffffff161461066657600080fd5b60008173ffffffffffffffffffffffffffffffffffffffff164760405161068c906121d5565b60006040518083038185875af1925050503d80600081146106c9576040519150601f19603f3d011682016040523d82523d6000602084013e6106ce565b606091505b50509050806106dc57600080fd5b5050565b6106fb306106f56106f0846102d0565b611575565b33611592565b60046040518060c0016040528086815260200185815260200184815260200161072384611575565b81526020013373ffffffffffffffffffffffffffffffffffffffff168152602001600260009054906101000a900473ffffffffffffffffffffffffffffffffffffffff1673ffffffffffffffffffffffffffffffffffffffff16815250908060018154018082558091505060019003906000526020600020906006020160009091909190915060008201518160000190805190602001906107c5929190611869565b5060208201518160010190805190602001906107e2929190611869565b5060408201518160020190805190602001906107ff929190611869565b506060820151816003015560808201518160040160006101000a81548173ffffffffffffffffffffffffffffffffffffffff021916908373ffffffffffffffffffffffffffffffffffffffff16021790555060a08201518160050160006101000a81548173ffffffffffffffffffffffffffffffffffffffff021916908373ffffffffffffffffffffffffffffffffffffffff16021790555050503373ffffffffffffffffffffffffffffffffffffffff167f71e4d22df116fdc915c131ee73a1b2033055d24fda3387bc49fed0c5f15a51eb856108dc84611575565b6040516108ea929190612303565b60405180910390a250505050565b600060048281548110610934577f4e487b7100000000000000000000000000000000000000000000000000000000600052603260045260246000fd5b906000526020600020906006020190508060040160009054906101000a900473ffffffffffffffffffffffffffffffffffffffff1673ffffffffffffffffffffffffffffffffffffffff163373ffffffffffffffffffffffffffffffffffffffff1614156109d7576040517f08c379a00000000000000000000000000000000000000000000000000000000081526004016109ce90612353565b60405180910390fd5b610a0a8160040160009054906101000a900473ffffffffffffffffffffffffffffffffffffffff16826003015433611592565b6000600560003373ffffffffffffffffffffffffffffffffffffffff1673ffffffffffffffffffffffffffffffffffffffff16815260200190815260200160002090506001816003016000828254610a62919061251d565b9250508190555080600401839080600181540180825580915050600190039060005260206000200160009091909190915055338260050160006101000a81548173ffffffffffffffffffffffffffffffffffffffff021916908373ffffffffffffffffffffffffffffffffffffffff1602179055503373ffffffffffffffffffffffffffffffffffffffff167f96ed2ea4d67ab6369f0e0da43454549a60ae55af2704de2bdc1cdc0221af01e88360040160009054906101000a900473ffffffffffffffffffffffffffffffffffffffff168460030154604051610b47929190612265565b60405180910390a2505050565b60008054906101000a900473ffffffffffffffffffffffffffffffffffffffff1681565b600260009054906101000a900473ffffffffffffffffffffffffffffffffffffffff1673ffffffffffffffffffffffffffffffffffffffff163373ffffffffffffffffffffffffffffffffffffffff161415610bd357600080fd5b600060048381548110610c0f577f4e487b7100000000000000000000000000000000000000000000000000000000600052603260045260246000fd5b906000526020600020906006020190508060040160009054906101000a900473ffffffffffffffffffffffffffffffffffffffff1673ffffffffffffffffffffffffffffffffffffffff163373ffffffffffffffffffffffffffffffffffffffff1614610c7b57600080fd5b600260009054906101000a900473ffffffffffffffffffffffffffffffffffffffff1673ffffffffffffffffffffffffffffffffffffffff168160050160009054906101000a900473ffffffffffffffffffffffffffffffffffffffff1673ffffffffffffffffffffffffffffffffffffffff1614610cf957600080fd5b610d0282611575565b8160030181905550505050565b6005602052806000526040600020600091509050806000018054610d329061269a565b80601f0160208091040260200160405190810160405280929190818152602001828054610d5e9061269a565b8015610dab5780601f10610d8057610100808354040283529160200191610dab565b820191906000526020600020905b815481529060010190602001808311610d8e57829003601f168201915b505050505090806001018054610dc09061269a565b80601f0160208091040260200160405190810160405280929190818152602001828054610dec9061269a565b8015610e395780601f10610e0e57610100808354040283529160200191610e39565b820191906000526020600020905b815481529060010190602001808311610e1c57829003601f168201915b5050505050908060020160009054906101000a900460ff16908060030154905084565b610e64611920565b60048281548110610e9e577f4e487b7100000000000000000000000000000000000000000000000000000000600052603260045260246000fd5b90600052602060002090600602016040518060c0016040529081600082018054610ec79061269a565b80601f0160208091040260200160405190810160405280929190818152602001828054610ef39061269a565b8015610f405780601f10610f1557610100808354040283529160200191610f40565b820191906000526020600020905b815481529060010190602001808311610f2357829003601f168201915b50505050508152602001600182018054610f599061269a565b80601f0160208091040260200160405190810160405280929190818152602001828054610f859061269a565b8015610fd25780601f10610fa757610100808354040283529160200191610fd2565b820191906000526020600020905b815481529060010190602001808311610fb557829003601f168201915b50505050508152602001600282018054610feb9061269a565b80601f01602080910402602001604051908101604052809291908181526020018280546110179061269a565b80156110645780601f1061103957610100808354040283529160200191611064565b820191906000526020600020905b81548152906001019060200180831161104757829003601f168201915b50505050508152602001600382015481526020016004820160009054906101000a900473ffffffffffffffffffffffffffffffffffffffff1673ffffffffffffffffffffffffffffffffffffffff1673ffffffffffffffffffffffffffffffffffffffff1681526020016005820160009054906101000a900473ffffffffffffffffffffffffffffffffffffffff1673ffffffffffffffffffffffffffffffffffffffff1673ffffffffffffffffffffffffffffffffffffffff16815250509050919050565b6000600654905090565b60606004805480602002602001604051908101604052809291908181526020016000905b828210156113f657838290600052602060002090600602016040518060c001604052908160008201805461118b9061269a565b80601f01602080910402602001604051908101604052809291908181526020018280546111b79061269a565b80156112045780601f106111d957610100808354040283529160200191611204565b820191906000526020600020905b8154815290600101906020018083116111e757829003601f168201915b5050505050815260200160018201805461121d9061269a565b80601f01602080910402602001604051908101604052809291908181526020018280546112499061269a565b80156112965780601f1061126b57610100808354040283529160200191611296565b820191906000526020600020905b81548152906001019060200180831161127957829003601f168201915b505050505081526020016002820180546112af9061269a565b80601f01602080910402602001604051908101604052809291908181526020018280546112db9061269a565b80156113285780601f106112fd57610100808354040283529160200191611328565b820191906000526020600020905b81548152906001019060200180831161130b57829003601f168201915b50505050508152602001600382015481526020016004820160009054906101000a900473ffffffffffffffffffffffffffffffffffffffff1673ffffffffffffffffffffffffffffffffffffffff1673ffffffffffffffffffffffffffffffffffffffff1681526020016005820160009054906101000a900473ffffffffffffffffffffffffffffffffffffffff1673ffffffffffffffffffffffffffffffffffffffff1673ffffffffffffffffffffffffffffffffffffffff168152505081526020019060010190611158565b50505050905090565b60008054906101000a900473ffffffffffffffffffffffffffffffffffffffff1673ffffffffffffffffffffffffffffffffffffffff163373ffffffffffffffffffffffffffffffffffffffff161461145757600080fd5b8060018190555050565b60008054906101000a900473ffffffffffffffffffffffffffffffffffffffff1673ffffffffffffffffffffffffffffffffffffffff163373ffffffffffffffffffffffffffffffffffffffff16146114b957600080fd5b600360009054906101000a900473ffffffffffffffffffffffffffffffffffffffff1673ffffffffffffffffffffffffffffffffffffffff1663a9059cbb83836040518363ffffffff1660e01b8152600401611516929190612265565b602060405180830381600087803b15801561153057600080fd5b505af1158015611544573d6000803e3d6000fd5b505050506040513d601f19601f820116820180604052508101906115689190611afe565b61157157600080fd5b5050565b6000670de0b6b3a76400008261158b91906125a4565b9050919050565b600360009054906101000a900473ffffffffffffffffffffffffffffffffffffffff1673ffffffffffffffffffffffffffffffffffffffff166370a08231826040518263ffffffff1660e01b81526004016115ed91906121ea565b60206040518083038186803b15801561160557600080fd5b505afa158015611619573d6000803e3d6000fd5b505050506040513d601f19601f8201168201806040525081019061163d9190611c67565b82111561167f576040517f08c379a000000000000000000000000000000000000000000000000000000000815260040161167690612333565b60405180910390fd5b81600360009054906101000a900473ffffffffffffffffffffffffffffffffffffffff1673ffffffffffffffffffffffffffffffffffffffff1663dd62ed3e83306040518363ffffffff1660e01b81526004016116dd929190612205565b60206040518083038186803b1580156116f557600080fd5b505afa158015611709573d6000803e3d6000fd5b505050506040513d601f19601f8201168201806040525081019061172d9190611c67565b101561176e576040517f08c379a000000000000000000000000000000000000000000000000000000000815260040161176590612393565b60405180910390fd5b6000600360009054906101000a900473ffffffffffffffffffffffffffffffffffffffff1673ffffffffffffffffffffffffffffffffffffffff166323b872dd8386866040518463ffffffff1660e01b81526004016117cf9392919061222e565b602060405180830381600087803b1580156117e957600080fd5b505af11580156117fd573d6000803e3d6000fd5b505050506040513d601f19601f820116820180604052508101906118219190611afe565b905080611863576040517f08c379a000000000000000000000000000000000000000000000000000000000815260040161185a90612373565b60405180910390fd5b50505050565b8280546118759061269a565b90600052602060002090601f01602090048101928261189757600085556118de565b82601f106118b057805160ff19168380011785556118de565b828001600101855582156118de579182015b828111156118dd5782518255916020019190600101906118c2565b5b5090506118eb9190611982565b5090565b6040518060a00160405280606081526020016060815260200160001515815260200160008152602001606081525090565b6040518060c0016040528060608152602001606081526020016060815260200160008152602001600073ffffffffffffffffffffffffffffffffffffffff168152602001600073ffffffffffffffffffffffffffffffffffffffff1681525090565b5b8082111561199b576000816000905550600101611983565b5090565b60006119b26119ad84612443565b612412565b9050828152602081018484840111156119ca57600080fd5b6119d5848285612658565b509392505050565b6000813590506119ec816127e2565b92915050565b600081359050611a01816127f9565b92915050565b600081519050611a1681612810565b92915050565b600082601f830112611a2d57600080fd5b8135611a3d84826020860161199f565b91505092915050565b600081359050611a5581612827565b92915050565b600081519050611a6a81612827565b92915050565b600060208284031215611a8257600080fd5b6000611a90848285016119dd565b91505092915050565b600060208284031215611aab57600080fd5b6000611ab9848285016119f2565b91505092915050565b60008060408385031215611ad557600080fd5b6000611ae3858286016119dd565b9250506020611af485828601611a46565b9150509250929050565b600060208284031215611b1057600080fd5b6000611b1e84828501611a07565b91505092915050565b60008060408385031215611b3a57600080fd5b600083013567ffffffffffffffff811115611b5457600080fd5b611b6085828601611a1c565b925050602083013567ffffffffffffffff811115611b7d57600080fd5b611b8985828601611a1c565b9150509250929050565b60008060008060808587031215611ba957600080fd5b600085013567ffffffffffffffff811115611bc357600080fd5b611bcf87828801611a1c565b945050602085013567ffffffffffffffff811115611bec57600080fd5b611bf887828801611a1c565b935050604085013567ffffffffffffffff811115611c1557600080fd5b611c2187828801611a1c565b9250506060611c3287828801611a46565b91505092959194509250565b600060208284031215611c5057600080fd5b6000611c5e84828501611a46565b91505092915050565b600060208284031215611c7957600080fd5b6000611c8784828501611a5b565b91505092915050565b60008060408385031215611ca357600080fd5b6000611cb185828601611a46565b9250506020611cc285828601611a46565b9150509250929050565b6000611cd88383612005565b905092915050565b6000611cec83836121b7565b60208301905092915050565b611d01816125fe565b82525050565b611d10816125fe565b82525050565b6000611d2182612493565b611d2b81856124ce565b935083602082028501611d3d85612473565b8060005b85811015611d795784840389528151611d5a8582611ccc565b9450611d65836124b4565b925060208a01995050600181019050611d41565b50829750879550505050505092915050565b6000611d968261249e565b611da081856124df565b9350611dab83612483565b8060005b83811015611ddc578151611dc38882611ce0565b9750611dce836124c1565b925050600181019050611daf565b5085935050505092915050565b611df281612622565b82525050565b611e0181612622565b82525050565b6000611e12826124a9565b611e1c81856124fb565b9350611e2c818560208601612667565b611e35816127d1565b840191505092915050565b6000611e4b826124a9565b611e55818561250c565b9350611e65818560208601612667565b611e6e816127d1565b840191505092915050565b6000611e86602e8361250c565b91507f45732073696e64206e696368742067656e756e6720546f6b656e7320756d207a60008301527f75207472616e736665726972656e0000000000000000000000000000000000006020830152604082019050919050565b6000611eec602a8361250c565b91507f536965206b6f656e6e656e206e69636874206968726520456967656e656e204e60008301527f465453206b617566656e000000000000000000000000000000000000000000006020830152604082019050919050565b6000611f526000836124f0565b9150600082019050919050565b6000611f6c600e8361250c565b91507f4e6963687420676573656e6465740000000000000000000000000000000000006000830152602082019050919050565b6000611fac60378361250c565b91507f45732073696e64206e696368742067656e756e67204f726967696e616c20546f60008301527f6b656e7320756d207a75207472616e736665726972656e0000000000000000006020830152604082019050919050565b600060c08301600083015184820360008601526120228282611e07565b9150506020830151848203602086015261203c8282611e07565b915050604083015184820360408601526120568282611e07565b915050606083015161206b60608601826121b7565b50608083015161207e6080860182611cf8565b5060a083015161209160a0860182611cf8565b508091505092915050565b600060c08301600083015184820360008601526120b98282611e07565b915050602083015184820360208601526120d38282611e07565b915050604083015184820360408601526120ed8282611e07565b915050606083015161210260608601826121b7565b5060808301516121156080860182611cf8565b5060a083015161212860a0860182611cf8565b508091505092915050565b600060a08301600083015184820360008601526121508282611e07565b9150506020830151848203602086015261216a8282611e07565b915050604083015161217f6040860182611de9565b50606083015161219260608601826121b7565b50608083015184820360808601526121aa8282611d8b565b9150508091505092915050565b6121c08161264e565b82525050565b6121cf8161264e565b82525050565b60006121e082611f45565b9150819050919050565b60006020820190506121ff6000830184611d07565b92915050565b600060408201905061221a6000830185611d07565b6122276020830184611d07565b9392505050565b60006060820190506122436000830186611d07565b6122506020830185611d07565b61225d60408301846121c6565b949350505050565b600060408201905061227a6000830185611d07565b61228760208301846121c6565b9392505050565b600060208201905081810360008301526122a88184611d16565b905092915050565b600060808201905081810360008301526122ca8187611e40565b905081810360208301526122de8186611e40565b90506122ed6040830185611df8565b6122fa60608301846121c6565b95945050505050565b6000604082019050818103600083015261231d8185611e40565b905061232c60208301846121c6565b9392505050565b6000602082019050818103600083015261234c81611e79565b9050919050565b6000602082019050818103600083015261236c81611edf565b9050919050565b6000602082019050818103600083015261238c81611f5f565b9050919050565b600060208201905081810360008301526123ac81611f9f565b9050919050565b600060208201905081810360008301526123cd818461209c565b905092915050565b600060208201905081810360008301526123ef8184612133565b905092915050565b600060208201905061240c60008301846121c6565b92915050565b6000604051905081810181811067ffffffffffffffff82111715612439576124386127a2565b5b8060405250919050565b600067ffffffffffffffff82111561245e5761245d6127a2565b5b601f19601f8301169050602081019050919050565b6000819050602082019050919050565b6000819050602082019050919050565b600081519050919050565b600081519050919050565b600081519050919050565b6000602082019050919050565b6000602082019050919050565b600082825260208201905092915050565b600082825260208201905092915050565b600081905092915050565b600082825260208201905092915050565b600082825260208201905092915050565b60006125288261264e565b91506125338361264e565b9250827fffffffffffffffffffffffffffffffffffffffffffffffffffffffffffffffff0382111561256857612567612715565b5b828201905092915050565b600061257e8261264e565b91506125898361264e565b92508261259957612598612744565b5b828204905092915050565b60006125af8261264e565b91506125ba8361264e565b9250817fffffffffffffffffffffffffffffffffffffffffffffffffffffffffffffffff04831182151516156125f3576125f2612715565b5b828202905092915050565b60006126098261262e565b9050919050565b600061261b8261262e565b9050919050565b60008115159050919050565b600073ffffffffffffffffffffffffffffffffffffffff82169050919050565b6000819050919050565b82818337600083830152505050565b60005b8381101561268557808201518184015260208101905061266a565b83811115612694576000848401525b50505050565b600060028204905060018216806126b257607f821691505b602082108114156126c6576126c5612773565b5b50919050565b60006126d78261264e565b91507fffffffffffffffffffffffffffffffffffffffffffffffffffffffffffffffff82141561270a57612709612715565b5b600182019050919050565b7f4e487b7100000000000000000000000000000000000000000000000000000000600052601160045260246000fd5b7f4e487b7100000000000000000000000000000000000000000000000000000000600052601260045260246000fd5b7f4e487b7100000000000000000000000000000000000000000000000000000000600052602260045260246000fd5b7f4e487b7100000000000000000000000000000000000000000000000000000000600052604160045260246000fd5b6000601f19601f8301169050919050565b6127eb816125fe565b81146127f657600080fd5b50565b61280281612610565b811461280d57600080fd5b50565b61281981612622565b811461282457600080fd5b50565b6128308161264e565b811461283b57600080fd5b5056fea2646970667358221220292972db2942625b1ee46d31243c60dbacab467fe1f7ca5aae6d7d94d28b4b4064736f6c63430008000033",
  "immutableReferences": {},
  "source": "// SPDX-License-Identifier: MIT\npragma solidity ^0.8.0;\n\nimport \"./Address.sol\";\nimport \"@openzeppelin/contracts/token/ERC20/IERC20.sol\";\nimport \"@openzeppelin/contracts/utils/math/SafeMath.sol\";\nimport \"@openzeppelin/contracts/access/Ownable.sol\";\n\ncontract MetaDapp {\n    address public owner;\n    uint256 private secureAddPercent = 5;\n    address private noOne = address(0);\n    IERC20 private token;\n\n    struct User {\n        string name;\n        string contact;\n        bool updated;\n        uint256 total_products;\n        uint256[] products;\n    }\n\n    struct Product {\n        string name;\n        string desc;\n        string section;\n        uint256 price;\n        address owner;\n        address reserved_by;\n    }\n\n    Product[] private products;\n    mapping(address => User) public users;\n\n    uint256 private _totalUsers;\n\n    event ProductPurchased(address indexed user, address owner, uint256 price);\n    event ProductAdded(address indexed owner, string name, uint256 price);\n\n    constructor(address _token) {\n        owner = msg.sender;\n        token = IERC20(_token);\n        _totalUsers = 0;\n    }\n\n    function setSecureAddPercent(uint256 percent) external isOwner {\n        secureAddPercent = percent;\n    }\n\n    function getSecureAddPercent() private view isOwner returns (uint256) {\n        return secureAddPercent;\n    }\n\n    function __percentValue(uint256 _amount) public view returns (uint256) {\n        return (secureAddPercent * _amount) / 100;\n    }\n\n    function __amount(uint256 _amount) private pure returns (uint256) {\n        return _amount * (10**18);\n    }\n\n    function addProduct(\n        string memory name,\n        string memory desc,\n        string memory section,\n        uint256 price\n    ) public {\n        transferTockens(\n            address(this),\n            __amount(__percentValue(price)),\n            msg.sender\n        );\n        products.push(\n            Product(name, desc, section, __amount(price), msg.sender, noOne)\n        );\n        emit ProductAdded(msg.sender, name, __amount(price));\n    }\n\n    function transferTockens(\n        address _owner,\n        uint256 _price,\n        address _buyer\n    ) private {\n        require(\n            _price <= token.balanceOf(_buyer),\n            \"Es sind nicht genung Tokens um zu transferiren\"\n        );\n        require(\n            token.allowance(_buyer, address(this)) >= _price,\n            \"Es sind nicht genung Original Tokens um zu transferiren\"\n        );\n\n        bool sent = token.transferFrom(_buyer, _owner, _price);\n        require(sent, \"Nicht gesendet\");\n    }\n\n    function updateProductPrice(uint256 product_id, uint256 price) public {\n        require(msg.sender != noOne);\n        Product storage product = products[product_id];\n        require(msg.sender == product.owner);\n        require(product.reserved_by == noOne);\n        product.price = __amount(price);\n    }\n\n    function updateUserContact(string memory contact, string memory name)\n        public\n    {\n        require(msg.sender != noOne);\n        User storage user = users[msg.sender];\n        user.contact = contact;\n        user.name = name;\n\n        if (!user.updated) _totalUsers++;\n\n        user.updated = true;\n    }\n\n    function buyProduct(uint256 product_id) public {\n        Product storage product = products[product_id];\n        require(\n            msg.sender != product.owner,\n            \"Sie koennen nicht ihre Eigenen NFTS kaufen\"\n        );\n        transferTockens(product.owner, product.price, msg.sender);\n        User storage buyer = users[msg.sender];\n        buyer.total_products += 1;\n        buyer.products.push(product_id);\n        product.reserved_by = msg.sender;\n\n        emit ProductPurchased(msg.sender, product.owner, product.price);\n    }\n\n    function totalUsers() public view returns (uint256) {\n        return _totalUsers;\n    }\n\n    function getProducts() public view returns (Product[] memory) {\n        return products;\n    }\n\n    function getProduct(uint256 product_id)\n        public\n        view\n        returns (Product memory)\n    {\n        return products[product_id];\n    }\n\n    function getUser(address userAddress) public view returns (User memory) {\n        return users[userAddress];\n    }\n\n    function withdrawBNB(address payable account) external isOwner {\n        (bool success, ) = account.call{value: address(this).balance}(\"\");\n        require(success);\n    }\n\n    function withdraw(address to, uint256 amount) external isOwner {\n        require(token.transfer(to, amount));\n    }\n\n    modifier isOwner() {\n        require(msg.sender == owner);\n        _;\n    }\n}\n",
  "sourcePath": "D:\\tienda_Nft_Marketplace\\contracts\\MetaDapp.sol",
  "compiler": {
    "name": "solc",
    "version": "0.8.0+commit.c7dfd78e.Emscripten.clang"
  },
  "schemaVersion": "3.4.11",
  "updatedAt": "2022-12-16T19:47:03.497Z",
  "networkType": "ethereum",
  "devdoc": {
    "kind": "dev",
    "methods": {},
    "version": 1
  },
  "userdoc": {
    "kind": "user",
    "methods": {},
    "version": 1
  }
}